:020000040800F2
:10000000008001207D2000084D0600084F060008F2
:1000100051060008530600085506000800000000BD
:10002000000000000000000000000000570600086B
:1000300059060008000000005B0600085D06000885
:10004000CD200008CD200008CD200008CD200008DC
:10005000CD200008CD200008CD200008CD200008CC
:10006000CD200008CD200008CD200008CD200008BC
:10007000CD200008CD200008CD200008CD200008AC
:10008000CD200008CD200008CD200008CD2000089C
:10009000CD200008CD200008CD200008CD2000088C
:1000A000CD200008CD200008CD200008CD2000087C
:1000B000CD200008CD200008CD200008CD2000086C
:1000C000CD200008CD200008CD200008CD2000085C
:1000D000CD200008CD200008CD200008CD2000084C
:1000E000CD200008CD200008CD200008CD2000083C
:1000F000CD200008CD200008CD200008CD2000082C
:10010000CD200008CD200008CD200008CD2000081B
:10011000CD200008CD200008CD200008CD2000080B
:10012000CD200008CD200008CD200008CD200008FB
:10013000CD200008CD200008CD200008CD200008EB
:10014000CD200008CD200008CD200008CD200008DB
:10015000CD200008CD200008CD200008CD200008CB
:10016000CD200008CD200008CD200008CD200008BB
:10017000CD200008CD200008CD20000800000000A0
:08018000CD200008CD2000088D
:1001880010B5054C237833B9044B13B10448AFF3C9
:1001980000800123237010BD100000200000000023
:1001A8002821000808B5034B1BB103490348AFF3E6
:1001B800008008BD0000000014000020282100086D
:1001C80053B94AB9002908BF00281CBF4FF0FF31B6
:1001D8004FF0FF3000F074B9ADF1080C6DE904CEB2
:1001E80000F006F8DDF804E0DDE9022304B070470A
:1001F8002DE9F047089D04468E46002B4DD18A42D2
:10020800944669D9B2FA82F252B101FA02F3C2F104
:10021800200120FA01F10CFA02FC41EA030E944095
:100228004FEA1C48210CBEFBF8F61FFA8CF708FBB6
:1002380016E341EA034306FB07F199420AD91CEB8E
:10024800030306F1FF3080F01F81994240F21C81C0
:10025800023E63445B1AA4B2B3FBF8F008FB103308
:1002680044EA034400FB07F7A7420AD91CEB04043D
:1002780000F1FF3380F00A81A74240F2078164440D
:10028800023840EA0640E41B00261DB1D440002392
:10029800C5E900433146BDE8F0878B4209D9002DF6
:1002A80000F0EF800026C5E9000130463146BDE880
:1002B800F087B3FA83F6002E4AD18B4202D38242EA
:1002C80000F2F980841A61EB030301209E46002D99
:1002D800E0D0C5E9004EDDE702B9FFDEB2FA82F2EE
:1002E800002A40F09280A1EB0C014FEA1C471FFA4C
:1002F8008CFE0126200CB1FBF7F307FB131140EA33
:1003080001410EFB03F0884208D91CEB010103F1FF
:10031800FF3802D2884200F2CB804346091AA4B2C1
:10032800B1FBF7F007FB101144EA01440EFB00FE95
:10033800A64508D91CEB040400F1FF3102D2A645FA
:1003480000F2BB800846A4EB0E0440EA03409CE799
:10035800C6F12007B34022FA07FC4CEA030C20FA46
:1003680007F401FA06F31C43F9404FEA1C4900FA66
:1003780006F3B1FBF9F8200C1FFA8CFE09FB1811E3
:1003880040EA014108FB0EF0884202FA06F20BD956
:100398001CEB010108F1FF3A80F08880884240F2A6
:1003A8008580A8F102086144091AA4B2B1FBF9F0EA
:1003B80009FB101144EA014100FB0EFE8E4508D9E5
:1003C8001CEB010100F1FF346CD28E456AD902386A
:1003D800614440EA0840A0FB0294A1EB0E01A1424F
:1003E800C846A64656D353D05DB1B3EB080261EBBD
:1003F8000E0101FA07F722FA06F3F1401F43C5E997
:10040800007100263146BDE8F087C2F12003D840CC
:100418000CFA02FC21FA03F3914001434FEA1C470E
:100428001FFA8CFEB3FBF7F007FB10360B0C43EA00
:10043800064300FB0EF69E4204FA02F408D91CEBB0
:10044800030300F1FF382FD29E422DD902386344AE
:100458009B1B89B2B3FBF7F607FB163341EA03414E
:1004680006FB0EF38B4208D91CEB010106F1FF389D
:1004780016D28B4214D9023E6144C91A46EA004694
:1004880038E72E46284605E70646E3E61846F8E626
:100498004B45A9D2B9EB020864EB0C0E0138A3E76F
:1004A8004646EAE7204694E74046D1E7D0467BE750
:1004B800023B614432E7304609E76444023842E7C8
:1004C800704700BF72B6FEE700B597B0442200211E
:1004D80005A801F01DFE00230093019302930393E6
:1004E80004934FF4007001F015FD18BB012205922A
:1004F8004FF48033069302230F9303211091119236
:1005080014221292072213921493159305A800F04F
:1005180075FC88B90F2300930323019300230293EA
:10052800039304930421684600F076FF30B917B0AE
:100538005DF804FBFFF7C6FFFFF7C4FFFFF7C2FF34
:1005480008B500F097FBFFF7BFFF00F003F800F0D5
:1005580019F8FEE782B00A4BDA6C42F08002DA64DE
:10056800DA6C02F080020092009ADA6C42F0010222
:10057800DA64DB6C03F001030193019B02B070475E
:100588000010024008B50B480B4B03604FF4E133F1
:10059800436000238360C36003610C22426183616E
:1005A800C3610362436200F00CFB00B908BDFFF7AA
:1005B80089FFFBE72C0000200038014010B5AAB0E5
:1005C8000446002125912691279128912991882276
:1005D80003A801F09DFD2268184B9A4201D02AB069
:1005E80010BD0123039303A801F062F918BB144B53
:1005F8001A6E42F480421A661A6E02F48042019220
:10060800019ADA6C42F00102DA64DB6C03F0010350
:100618000293029B4FF4C063259302232693002381
:100628002793032328930723299325A94FF0904064
:1006380001F068FBD3E7FFF745FFD8E70038014032
:1006480000100240FEE7FEE7FEE7FEE7FEE7704720
:100658007047704708B500F01DFB08BD82B00A4B13
:100668001A6E42F001021A661A6E02F00102009236
:10067800009A9A6D42F080529A659B6D03F0805300
:100688000193019B02B070470010024010B5044668
:10069800016883680269134342691343C2691343BB
:1006A80008688E4A024013430B602268536823F49B
:1006B8004053E1680B435360A1692268884B9A4212
:1006C80001D0236A1943936823F430630B43936082
:1006D8002368844A934210D0834A934221D0834AA4
:1006E800934237D0824A93425CD0824A93426BD07D
:1006F8007B4A93427DD010223AE002F55842D2F864
:10070800882002F00302032A09D8DFE802F0020475
:10071800870601222CE004222AE0082228E0102281
:1007280026E002F5E632D2F8882002F00C020C2A04
:100738000ED8DFE802F0070D0D0D090D0D0D750D32
:100748000D0D0B00002213E0042211E008220FE037
:1007580010220DE002F5E432D2F8882002F03002CF
:10076800202A5FD01AD8002A5ED0102A5ED104222F
:100778005B498B4276D0E069B0F5004F00F0A3806A
:10078800082A00F20E81DFE812F0DD00F300DB003A
:100798000C01F6000C010C010C01F900302A47D1BC
:1007A8000822E5E702F5E232D2F8882002F0C0021A
:1007B800802A3FD004D8FAB3402A3FD10422D7E791
:1007C800C02A3DD10822D3E702F5E032D2F88820CA
:1007D80002F44072B2F5007F34D005D8A2B3B2F566
:1007E800807F33D10422C3E7B2F5407F30D108229D
:1007F800BEE702F5C832D2F8882002F44062B2F5AA
:10080800006F27D005D83AB3B2F5806F26D10422FD
:10081800AEE7B2F5406F23D10822A9E70222A7E785
:100828000222A5E70222A3E70022A1E710229FE700
:1008380010229DE702229BE7002299E7102297E702
:10084800102295E7022293E7002291E710228FE712
:1008580010228DE702228BE7002289E7102287E722
:10086800102285E7082A00F28C80DFE802F0088A67
:100878002A8A278A8A8A05004FF4004003E000F09C
:1008880095FE00287FD0626802EB420383427CD841
:10089800B0EB023F7BD8010E00025308C0184FF09E
:1008A800000341F10001FFF78BFCA0F54072124BE9
:1008B8009A426ED82368D860002055E000F044FAC8
:1008C800DFE70E48DFE7082A65D8DFE802F01933CA
:1008D8000564366464641D00084815E0F369FFEF99
:1008E80000800040003801400044004000480040BB
:1008F800004C004000500040FFFC0F000024F400B2
:1009080000F054FE002848D06268530803EB40000A
:10091800B0FBF2F0A0F110024FF6EF739A423ED806
:1009280083B223F00F03C0F3420018432368D86052
:10093800002019E000F04CFEE4E700F005FAE1E7DA
:100948001B4802E000F032FE68B3636800EB530016
:10095800B0FBF3F0A0F110024FF6EF739A4224D8DF
:10096800236880B2D860002000236366A36610BDA8
:1009780000F02EFEE8E700F0E7F9E5E74FF4004065
:10098800E3E70120F0E70020EEE70120ECE7012093
:10099800EAE70120E8E70120E6E70020E4E7012094
:1009A800E2E70120E0E70020DEE70120DCE700BF06
:1009B8000024F400436A13F0010F06D0026853685C
:1009C80023F40033816A0B435360436A13F0020F28
:1009D80006D00268536823F48033C16A0B4353601E
:1009E800436A13F0040F06D00268536823F4802387
:1009F800016B0B435360436A13F0080F06D002687B
:100A0800536823F40043416B0B435360436A13F06C
:100A1800100F06D00268936823F48053816B0B4350
:100A28009360436A13F0200F06D00268936823F49A
:100A38000053C16B0B439360436A13F0400F0AD015
:100A48000268536823F48013016C0B435360036CF2
:100A5800B3F5801F0BD0436A13F0800F06D00268ED
:100A6800536823F40023816C0B435360704702687A
:100A7800536823F4C003416C0B435360EBE72DE943
:100A8800F84305460F4616469946DDF820802C683F
:100A9800E46937EA04030CBF4FF0010C4FF0000C77
:100AA800B44553D1B8F1FF3FF1D000F0FFF8A0EB07
:100AB800090040452DD8B8F1000F2AD02B681A68D4
:100AC80012F0040FE3D0DA6912F4006FDFD04FF4AC
:100AD80000621A622A6852E8003F23F4D07342E8A1
:100AE80000310029F6D12A6802F1080353E8003FD3
:100AF80023F00103083242E800310029F3D1202312
:100B0800AB67EB67C5F88030002385F874300320A5
:100B18001DE02A6852E8003F23F4D07342E8003110
:100B28000029F6D12A6802F1080353E8003F23F0B0
:100B38000103083242E800310029F3D12023AB67D2
:100B4800EB67002385F87430032000E00020BDE83F
:100B5800F88330B583B004460023C0F8803000F035
:100B6800A5F805462268126812F0080F0DD123680F
:100B78001B6813F0040F16D12023A367E367002036
:100B8800206684F8740003B030BD6FF07E43009394
:100B9800034600224FF400112046FFF770FF00289B
:100BA800E5D00320EFE76FF07E4300932B46002249
:100BB8004FF480012046FFF762FF0028DCD00320B5
:100BC800E1E768B310B50446836F03B32423A36732
:100BD8002268136823F0010313602046FFF756FDCF
:100BE800012813D0636ABBB92268536823F4904381
:100BF80053602268936823F02A039360226813687D
:100C080043F0010313602046FFF7A3FF10BD80F8EF
:100C18007430FFF7D3FCD9E72046FFF7CBFEE3E7B4
:100C280001207047104B1B780BB90120704710B595
:100C380004464FF47A70B0FBF3F30C4A1068B0FB2B
:100C4800F3F001F0F9F968B90F2C01D901200AE095
:100C5800002221464FF0FF3001F0B6F9044B1C602A
:100C6800002000E0012010BD000000200800002046
:100C78000400002010B5032001F094F90F20FFF7BD
:100C8800D1FF10B10124204610BD0446FFF7E6FC51
:100C9800F9E70000034B1B78034A11680B44136003
:100CA800704700BF00000020B0000020014B18680A
:100CB800704700BFB000002030B583B00446204B19
:100CC8009B6D13F0805F0BD001F01CF9B0F5007F2D
:100CD80017D0802C1FD82DD0702C2DD000211BE0D0
:100CE800174DAB6D43F08053AB65AB6D03F080538C
:100CF8000193019B01F006F9AB6D23F08053AB65BE
:100D0800E4E7802C03D9A02C03D9022104E00021B8
:100D180002E0012100E003210A4A136823F00703D7
:100D28000B431360136803F007038B4206D10020BE
:100D380003B030BD0221EFE70121EDE70120F7E71D
:100D48000010024000200240284A9368D26802F04E
:100D5800030213F00C030AD00C2B06D0042B1FD06F
:100D6800082B20D00020024610E0012AF6D11F4AA5
:100D7800126812F0080F0CD11C4AD2F89420C2F362
:100D880003221B4951F8222043B100200C2B0DD01F
:100D98007047164A1268C2F30312F2E71046F5E7E5
:100DA80014480022F2E714480022EFE70F4BDB68F3
:100DB80003F00303022B16D0032B00D10E4A0B4974
:100DC800C868C0F30210431CC868C0F3062002FBC1
:100DD80000F0B0FBF3F0CB68C3F3416301335B0071
:100DE800B0FBF3F0D4E7034AE9E700BF0010024084
:100DF800582100080024F40000127A00002800F0AE
:100E0800F182F0B583B00446964B9D6805F00C0559
:100E1800DE6806F00306036813F0100F5AD0E5B138
:100E28000C2D18D0A369002B00F0BB808D4A1368E5
:100E380043F001031360FFF739FF0746894B1B682E
:100E480013F0020F40F09A80FFF730FFC01B022812
:100E5800F4D90320D1E2012EE4D1824B1B6813F0B0
:100E6800020F03D0A369002B00F0BE82206A7D4BDD
:100E78001B6813F0080F5BD07A4B1B6803F0F00374
:100E880098425CD8774B1A6842F008021A601A68D0
:100E980022F0F002216A0A431A605A6822F47F425B
:100EA800E16942EA01225A60002D60D0FFF74CFF49
:100EB8006C4B9B68C3F303136B4AD35C03F01F03AB
:100EC800D8406A4B18606A4B1868FFF7ABFE0028D9
:100ED80040F09382236813F0010F00F08180082D01
:100EE80075D00C2D71D06368B3F5803F00F0978002
:100EF800B3F5A02F00F099805A4B1A6822F480327B
:100F08001A601A6822F480221A606368002B00F0C5
:100F18009980FFF7CBFE0746524B1B6813F4003F3E
:100F28005ED1FFF7C3FEC01B6428F5D9032064E235
:100F38004C4BD3F894301B0903F0F003A0E7FFF7FC
:100F4800BBFE002840F05282464B1A6842F0080265
:100F58001A601A6822F0F002216A0A431A605A6875
:100F680022F47F42E16942EA01225A609EE7206A40
:100F7800FFF7A2FE002899D001203EE2394B1A68FB
:100F880042F008021A601A6822F0F002216A0A4345
:100F98001A605A6822F47F42E16942EA01225A60E3
:100FA80098E7304A136823F001031360FFF77EFEC9
:100FB80007462C4B1B6813F0020F8BD0FFF776FE09
:100FC800C01B0228F5D9032017E2032E8BD1254B2D
:100FD8001B6813F4003F03D06368002B00F00882FD
:100FE800236813F0020F58D0042D45D00C2D41D0A2
:100FF800E368002B77D01B4A136843F480731360AF
:10100800FFF754FE0646174B1B6813F4806F61D137
:10101800FFF74CFE801B0228F5D90320EDE1114AA9
:10102800136843F4803313606FE703F18043A3F53B
:101038003C331A6842F480221A601A6842F48032FB
:101048001A6062E7FFF732FE0746064B1B6813F487
:10105800003FC5D0FFF72AFEC01B6428F5D903203E
:10106800CBE100BF0010024040210008080000202A
:1010780004000020022EBBD1A34B1B6813F4806F21
:1010880003D0E368002B00F0B5819F4A536823F032
:10109800F853216943EA01635360236813F0080F8A
:1010A8004CD063699BB3984AD2F8943043F001035B
:1010B800C2F89430FFF7FAFD0646934BD3F8943004
:1010C80013F0020F3AD1FFF7F1FD801B0228F4D983
:1010D800032092E18C4A536823F0F853216943EACC
:1010E80001635360D9E7884A136823F48073136057
:1010F800FFF7DCFD0646844B1B6813F4806FCCD0E9
:10110800FFF7D4FD801B0228F5D9032075E17E4A3C
:10111800D2F8943023F00103C2F89430FFF7C6FDEB
:101128000646794BD3F8943013F0020F06D0FFF738
:10113800BDFD801B0228F4D903205EE1236813F06B
:10114800040F7AD0704B9B6D13F0805F36D16E4BD5
:101158009A6D42F080529A659B6D03F0805301931B
:10116800019B0126694B1B6813F4807F28D0A36874
:10117800012B39D0052B3FD0634BD3F8902022F0B8
:101188000102C3F89020D3F8902022F00402C3F89B
:101198009020A368002B3DD0FFF788FD07465A4BE7
:1011A800D3F8903013F0020F46D1FFF77FFDC01B34
:1011B80041F288339842F2D903201EE10026D1E794
:1011C800524A136843F480731360FFF76FFD0746B4
:1011D8004E4B1B6813F4807FC9D1FFF767FDC01B16
:1011E8000228F5D9032008E1474AD2F8903043F0A5
:1011F8000103C2F89030CCE7434BD3F8902042F07B
:101208000402C3F89020D3F8902042F00102C3F8FA
:101218009020BEE7FFF74AFD07463B4BD3F89030D6
:1012280013F0020F08D0FFF741FDC01B41F28833CD
:101238009842F2D90320E0E0EEB9A36A002B00F04F
:10124800DB80022B1DD00C2D00F0DD802E4A1368A8
:1012580023F080731360FFF729FD04462A4B1B68AF
:1012680013F0007F00F0B780FFF720FD001B022875
:10127800F4D90320C1E0244A936D23F08053936589
:10128800DBE7214BDB6803F00301E26A91420FD0F0
:101298000C2D00F0B4801C4B1B6813F0806F40F0DD
:1012A800B080194B1B6813F0805F31D00120A4E097
:1012B80003F07002216B0139B2EB011FE8D103F48E
:1012C800FE42616BB2EB012FE2D103F40031A26B55
:1012D800073A18BF01229142DAD103F4C001E26B48
:1012E8005208013AB1EB425FD2D103F0C063226CDD
:1012F8005208013AB3EB426FCAD1034B1B6813F093
:10130800007F4ED0002078E00010024000700040BE
:101318003E4A136823F080731360FFF7C7FC054645
:101328003A4B1B6813F0007F06D0FFF7BFFC401B49
:101338000228F5D9032060E0344AD36834491940BB
:10134800E36A206B013843EA0013606B43EA002329
:10135800E06B4008013843EA4053206C40080138EC
:1013680043EA4063A06B000943EA40430B43D36060
:10137800136843F080731360D36843F08073D360BD
:10138800FFF794FC0446214B1B6813F0007F06D13D
:10139800FFF78CFC001B0228F5D903202DE0002064
:1013A8002BE01A4B1A6842F080721A60DA6842F031
:1013B8008072DA60FFF77AFC0446144B1B6813F05E
:1013C800007F06D1FFF772FC031B022BF5D903201F
:1013D80013E0002011E00D4AD1680E4B0B40D3609A
:1013E80000200AE001207047012006E0012004E007
:1013F800012002E0012000E0002003B0F0BD012040
:10140800FBE70120F9E70120F7E700BF00100240E1
:101418008C809DF9FCFFEEFE002800F0AF8070B5CF
:101428000D460446594B1B6803F007038B420BD249
:10143800564A136823F007030B431360136803F03D
:1014480007038B4240F09C80236813F0020F0CD0F6
:10145800A2684F4B9B6803F0F0039A4205D94C49A8
:101468008B6823F0F0031A438A60236813F0010F96
:1014780039D06368032B09D0022B26D063BB444ABA
:10148800126812F0020F06D1012076E0404A126875
:1014980012F0007F76D03E498A6822F00302134397
:1014A8008B60FFF703FC0646394B9B6803F00C037F
:1014B8006268B3EB820F16D0FFF7F8FB801B41F28E
:1014C80088339842F0D9032057E0314A126812F461
:1014D800003FE0D1012050E02D4A126812F4806FDD
:1014E800D9D1012049E0236813F0020F0CD0A2687B
:1014F800274B9B6803F0F0039A4205D224498B6876
:1015080023F0F0031A438A60204B1B6803F007039B
:10151800AB420AD91D4A136823F007032B43136013
:10152800136803F00703AB422ED1236813F0040FAE
:1015380006D0174A936823F4E063E1680B4393608D
:10154800236813F0080F07D0114A936823F46053F7
:10155800216943EAC1039360FFF7F6FB0C4B9B68D4
:10156800C3F303130B4AD35C03F01F03D8400A4BA1
:1015780018600A4B1868FFF755FB70BD01207047CB
:101588000120FAE70120F8E70120F6E700200240F1
:10159800001002404021000808000020040000203C
:1015A800014B1868704700BF0800002008B5FFF716
:1015B800F7FF054B9B68C3F30223044AD35C03F08F
:1015C8001F03D84008BD00BF00100240502100088A
:1015D80008B5FFF7E5FF054B9B68C3F3C223044A30
:1015E800D35C03F01F03D84008BD00BF00100240C1
:1015F80050210008F8B504460F46594BDB6813F034
:10160800030F18D0564BDB6803F0030302689342BC
:1016180002D001252846F8BD002A00F09E80504BD4
:10162800DB68C3F3021301334268934201D00125FA
:10163800F0E7002509E00368022B57D0032B5CD0A4
:10164800012B42D00125002DE4D1454A136823F02F
:1016580080631360FFF72AFB0646414B1B6813F0B3
:10166800006F05D0FFF722FB831B022BF5D903255A
:10167800002DCFD1002F4ED139490B6923F41F33E8
:1016880023F44073A068E2681209520442EA002277
:1016980013430B61324A136843F080631360FFF70A
:1016A80005FB06462E4B1B6813F0006F05D1FFF7AC
:1016B800FDFA831B022BF5D90325002DAAD1284A50
:1016C8001369A1690B431361A4E7254A126812F054
:1016D800020F1ED02248C26822F0730261680139E5
:1016E80043EA01131343C3600025ACE71C4A1268A0
:1016F80012F4806FEED10125A5E7194A126812F499
:10170800003FE7D1164A126812F4802FE2D1012572
:1017180099E7012597E7012F0FD01148026922F0B8
:10172800C06222F4FE42A16863695B08013B5B0664
:1017380043EA012313430361ACE70948026922F431
:10174800C00222F4FE42A16823695B08013B5B05E5
:1017580043EA0123134303619CE701255AE700BFCD
:1017680000100240F8B504460F46504BDB6813F0F2
:10177800030F18D04D4BDB6803F003030268934254
:1017880002D001252846F8BD002A00F08C80474B7E
:10179800DB68C3F3021301334268934201D0012589
:1017A800F0E7002509E00368022B57D0032B5CD033
:1017B800012B42D00125002DE4D13C4A136823F0C7
:1017C80080531360FFF772FA0646384B1B6813F014
:1017D800005F05D0FFF76AFA831B022BF5D90325B2
:1017E800002DCFD1002F4ED130494B6923F41F3340
:1017F80023F44073A068E2681209520442EA002206
:1018080013434B61294A136843F080531360FFF771
:101818004DFA0646254B1B6813F0005F05D1FFF70C
:1018280045FA831B022BF5D90325002DAAD11F4A9F
:10183800536961690B435361A4E71C4A126812F0AB
:10184800020F1ED01948C26822F07302616801397C
:1018580043EA01131343C3600025ACE7134A126837
:1018680012F4806FEED10125A5E7104A126812F430
:10187800003FE7D10D4A126812F4802FE2D101250A
:1018880099E7012597E70948426922F0C06222F4E6
:10189800FE42A16823695B08013B5B0643EA01231A
:1018A80013434361AEE701256CE700BF0010024017
:1018B8002DE9F04182B00446036813F4006F33D079
:1018C800436EB3F5000F1FD00CD823B3B3F5800FC8
:1018D80005D100212030FFF745FF064620E001270B
:1018E8003E4623E0B3F5400F0BD10026604AD2F8FC
:1018F800883023F44003616E0B43C2F88830002718
:1019080014E001273E4611E0594AD36843F4803376
:10191800D3600026EAE700210430FFF76BFE064695
:10192800002EE3D0374601E000273E46236813F433
:10193800805F30D0A36EB3F1007F1FD00DD81BB3EA
:10194800B3F1807F06D1002104F12000FFF70AFFE0
:10195800064605E001273E461DE0B3F1407F0AD167
:10196800C6B9434AD2F8883023F04073A16E0B43BE
:10197800C2F888300FE001273E460CE03C4AD368A5
:1019880043F48033D360EBE70021201DFFF732FEDC
:101998000646E5E73746236813F4003F71D0344B19
:1019A8009B6D13F0805F4ED1314B9A6D42F080529F
:1019B8009A659B6D03F080530193019B4FF00108DA
:1019C8002C4A136843F480731360FFF76FF90546D8
:1019D800284B1B6813F4807F05D1FFF767F9401B7C
:1019E8000228F5D90326002E46D1214BD3F8903092
:1019F80013F4407316D0D4F884209A4212D01C4AAB
:101A0800D2F8903023F44073D2F8901041F480312A
:101A1800C2F89010D2F8901021F48031C2F89010DA
:101A2800C2F8903013F0010F10D1002E40F027813A
:101A38000F4AD2F8903023F44073D4F884100B4343
:101A4800C2F8903019E04FF00008B9E7FFF72EF917
:101A58000546074BD3F8903013F0020FE5D1FFF796
:101A680025F9401B41F288339842F2D90326DCE776
:101A780000100240007000403746B8F1000F40F0F7
:101A88000081236813F0010F08D09D4AD2F88830EE
:101A980023F00303A16B0B43C2F88830236813F0CB
:101AA800020F08D0964AD2F8883023F00C03E16B75
:101AB8000B43C2F88830236813F0040F08D0904A0B
:101AC800D2F8883023F03003216C0B43C2F88830F9
:101AD800236813F0080F08D0894AD2F8883023F019
:101AE800C003616C0B43C2F88830236813F0100FF1
:101AF80008D0834AD2F8883023F44073A16C0B4392
:101B0800C2F88830236813F0200F08D07C4AD2F836
:101B1800883023F44063E16C0B43C2F888302368B3
:101B280013F4007F08D0764AD2F8883023F4402393
:101B3800E16D0B43C2F88830236813F4806F08D036
:101B48006F4AD2F8883023F44013216E0B43C2F851
:101B58008830236813F0400F08D0694AD2F88830DB
:101B680023F44053216D0B43C2F88830236813F0E7
:101B7800800F08D0624AD2F8883023F44043616D60
:101B88000B43C2F88830236813F4807F08D05C4A7E
:101B9800D2F8883023F44033A16D0B43C2F8883063
:101BA800236813F4005F0FD0554AD2F8883023F029
:101BB8004063E16E0B43C2F88830E36EB3F1006F07
:101BC80065D0B3F1806F67D0236813F4002F0FD06E
:101BD8004B4AD2F8883023F04063216F0B43C2F898
:101BE8008830236FB3F1006F5ED0B3F1806F60D09F
:101BF800236813F4802F0FD0414AD2F8883023F09D
:101C08004063616F0B43C2F88830636FB3F1006FB4
:101C180057D0B3F1806F59D0236813F4804F0FD099
:101C2800374AD2F8883023F04053A16F0B43C2F8EB
:101C38008830A36FB3F1805F50D0B3F1005F55D007
:101C4800236813F4004F08D02D4AD2F8883023F0C7
:101C58008043E16F0B43C2F88830236813F4803F58
:101C680009D0274AD2F8883023F00043D4F88010EE
:101C78000B43C2F88830384602B0BDE8F0813746D9
:101C8800FBE61F4A936D23F080539365F9E6D3680A
:101C980043F48013D36097E70121201DFFF7AAFCC6
:101CA800002891D007468FE7D36843F48013D360A8
:101CB8009EE70121201DFFF79DFC002898D00746CC
:101CC80096E7D36843F48013D360A5E70121201D6C
:101CD800FFF790FC00289FD007469DE70221201DB2
:101CE800FFF788FC0028ABD00746A9E7022104F1DA
:101CF8002000FFF737FD0028A2D00746A0E700BF65
:101D080000100240F0B583B000236BE085685E00E8
:101D18000324B44025EA0405CC68B4402C4384600D
:101D2800456825EA0C054C68C4F300149C402C4314
:101D3800446069E0C56A25EA0C0CC4F3C0049C4001
:101D480044EA0C04C46265E0DD08083550F82560F3
:101D580003F007044FEA840C0F2404FA0CF426EA73
:101D6800040E0C6904FA0CF444EA0E0440F8254009
:101D780067E0062400E0002404FA0EF42C430CF17A
:101D8800020C5C4D45F82C405B4CA568D44325EA11
:101D980002064F6817F4801F01D042EA0506564D27
:101DA800AE60ED6804EA05064F6817F4001F01D01D
:101DB80042EA0506504DEE606D6804EA05064F6874
:101DC80017F4003F01D042EA05064B4D6E602D68BE
:101DD8002C404E6816F4803F01D042EA0504464A7A
:101DE800146001330A6832FA03F400F081804FF07E
:101DF800010C0CFA03FC1CEA0202F2D04C6804F055
:101E08000304013C012C81D94C6804F0030EBEF197
:101E1800030F8FD04C6804F00304032C0CD0C46863
:101E28005D004FF0030C0CFA05FC24EA0C0C8C68DE
:101E3800AC4044EA0C04C4604C6804F00304022C6F
:101E480082D004684FEA430E4FF0030C0CFA0EFCE4
:101E580024EA0C0C4C6804F0030404FA0EF444EA77
:101E68000C0404604C6814F4403FBAD0234C256E2F
:101E780045F001052566246E04F001040194019CD7
:101E88004FEA930C0CF102051A4C54F8255003F054
:101E980003044FEA840E0F2404FA0EF425EA04051D
:101EA800B0F1904F3FF467AF154CA04216D004F53F
:101EB8008064A04214D004F58064A04212D004F5D6
:101EC8008064A04210D004F58064A0420ED004F5CE
:101ED8008064A0423FF44DAF07244DE701244BE74F
:101EE800022449E7032447E7042445E7052443E798
:101EF80003B0F0BD000001400004014000100240A2
:101F080000040048024B186800F4C060704700BF26
:101F180000700040B0F5007F0FD01F4B1B6803F422
:101F2800C063B3F5806F34D01B4A136823F4C063D1
:101F380043F48063136000207047174B1B6803F459
:101F4800C063B3F5007F20D0134A136823F4C0633D
:101F580043F400731360114B1B68322202FB03F336
:101F68000F4AA2FB03239B0C013300E0013B0A4A02
:101F7800526912F4806F01D0002BF7D1064B5B69D0
:101F880013F4806F03D100207047002070470320AE
:101F980070470020704700BF007000400800002014
:101FA80083DE1B43074AD36823F4E0631B041B0C3E
:101FB800000200F4E060034343F0BF6343F40033DE
:101FC800D360704700ED00E000B5194BDB68C3F340
:101FD8000223C3F1070CBCF1040F28BF4FF0040C17
:101FE80003F1040EBEF1060F18D9033B4FF0FF3E74
:101FF8000EFA0CFC21EA0C0199400EFA03F322EACE
:102008000303194300280BDB0901C9B200F1604042
:1020180000F5614080F800135DF804FB0023E5E754
:1020280000F00F000901C9B2024B1954F4E700BFD0
:1020380000ED00E014ED00E00138B0F1807F0BD234
:102048004FF0E0235861054AF02182F82310002060
:10205800986107221A6170470120704700ED00E07F
:10206800034AD2F8883043F47003C2F888307047C6
:1020780000ED00E0DFF834D0FFF7F2FF0C480D491F
:102088000D4A002302E0D458C4500433C4188C42CB
:10209800F9D30A4A0A4C002301E013600432A24231
:1020A800FBD300F011F8FEF74BFAFEE700800120A1
:1020B8000000002010000020A021000810000020CF
:1020C800B4000020FEE7000070B50D4D0D4C641BF8
:1020D800A4100026A64209D10B4D0C4C00F020F8A4
:1020E800641BA4100026A64205D170BD55F8043B18
:1020F80098470136EEE755F8043B98470136F2E772
:1021080090210008902100089021000894210008DF
:1021180002440346934200D1704703F8011BF9E7D4
:10212800F8B500BFF8BC08BC9E467047F8B500BFBC
:08213800F8BC08BC9E4670478C
:102140000000000000000000010203040607080967
:102150000000000001020304A0860100400D0300FE
:10216000801A060000350C0040420F0080841E00DB
:1021700000093D0000127A000024F40000366E01D0
:082180000048E801006CDC02DC
:0821880070E0FF7F0100000080
:08219000AD0100080000000091
:082198008901000800000000AD
:1021A000010000001000000000093D0000000000D8
:040000050800207D52
:00000001FF
